{
  "contractName": "PersonalData",
  "abi": [
    {
      "constant": false,
      "inputs": [
        {
          "name": "authorityId",
          "type": "string"
        },
        {
          "name": "stakeholderId",
          "type": "string"
        },
        {
          "name": "docName",
          "type": "string"
        },
        {
          "name": "docType",
          "type": "string"
        },
        {
          "name": "docId",
          "type": "string"
        },
        {
          "name": "validFrom",
          "type": "string"
        },
        {
          "name": "validTo",
          "type": "string"
        }
      ],
      "name": "AddPersonalData",
      "outputs": [],
      "payable": false,
      "stateMutability": "nonpayable",
      "type": "function"
    },
    {
      "constant": true,
      "inputs": [
        {
          "name": "stakeholderId",
          "type": "string"
        },
        {
          "name": "docType",
          "type": "string"
        }
      ],
      "name": "GetStudDoc",
      "outputs": [
        {
          "name": "",
          "type": "bytes"
        }
      ],
      "payable": false,
      "stateMutability": "view",
      "type": "function"
    },
    {
      "constant": false,
      "inputs": [
        {
          "name": "_a",
          "type": "string"
        },
        {
          "name": "_b",
          "type": "string"
        }
      ],
      "name": "stringsEqual",
      "outputs": [
        {
          "name": "",
          "type": "bool"
        }
      ],
      "payable": false,
      "stateMutability": "nonpayable",
      "type": "function"
    },
    {
      "constant": true,
      "inputs": [
        {
          "name": "arr",
          "type": "string[3]"
        },
        {
          "name": "startindex",
          "type": "uint256"
        },
        {
          "name": "endindex",
          "type": "uint256"
        }
      ],
      "name": "getBytes",
      "outputs": [
        {
          "name": "",
          "type": "bytes"
        }
      ],
      "payable": false,
      "stateMutability": "view",
      "type": "function"
    }
  ],
  "bytecode": "0x608060405260008055611003806100176000396000f300608060405260043610610062576000357c0100000000000000000000000000000000000000000000000000000000900463ffffffff16806313d199501461006757806336b4ed6d146100a4578063631f94a3146100e1578063718c5c1c1461010a575b600080fd5b34801561007357600080fd5b5061008e60048036036100899190810190610c7a565b610147565b60405161009b9190610e71565b60405180910390f35b3480156100b057600080fd5b506100cb60048036036100c69190810190610c13565b610243565b6040516100d89190610e8c565b60405180910390f35b3480156100ed57600080fd5b5061010860048036036101039190810190610ce6565b61033d565b005b34801561011657600080fd5b50610131600480360361012c9190810190610c7a565b610496565b60405161013e9190610e8c565b60405180910390f35b60006060806000859250849150816040518082805190602001908083835b60208310151561018a5780518252602082019150602081019050602083039250610165565b6001836020036101000a038019825116818451168082178552505050505050905001915050604051809103902060001916836040518082805190602001908083835b6020831015156101f157805182526020820191506020810190506020830392506101cc565b6001836020036101000a0380198251168184511680821785525050505050509050019150506040518091039020600019161415156102325760009050610237565b600190505b80935050505092915050565b60606000606080600086861015151561025b57600080fd5b600160030386111561026f57600160030395505b6001878703016040029350836040519080825280601f01601f1916602001820160405280156102ad5781602001602082028038833980820191505090505b50925060206040519080825280601f01601f1916602001820160405280156102e45781602001602082028038833980820191505090505b5091508590505b868110151561032f57878160038110151561030257fe5b602002015191506103148483856108ae565b61031d8261090d565b840393508080600190039150506102eb565b829450505050509392505050565b610345610952565b878160200181905250868160400181905250858160600181905250848160800181905250838160a00181905250828160c00181905250818160e00181905250428160000181815250508060016000805481526020019081526020016000206000820151816000015560208201518160010190805190602001906103c9929190610998565b5060408201518160020190805190602001906103e6929190610998565b506060820151816003019080519060200190610403929190610998565b506080820151816004019080519060200190610420929190610998565b5060a082015181600501908051906020019061043d929190610998565b5060c082015181600601908051906020019061045a929190610998565b5060e0820151816007019080519060200190610477929190610998565b5090505060008081548092919060010191905055505050505050505050565b606060008060006060806104a8610a18565b606060009550600094505b6000548510156107d25789935088925060008451141580156104d757506000835114155b156107c557610594600160008781526020019081526020016000206002018054600181600116156101000203166002900480601f0160208091040260200160405190810160405280929190818152602001828054600181600116156101000203166002900480156105895780601f1061055e57610100808354040283529160200191610589565b820191906000526020600020905b81548152906001019060200180831161056c57829003601f168201915b50505050508b610147565b156107c457610651600160008781526020019081526020016000206004018054600181600116156101000203166002900480601f0160208091040260200160405190810160405280929190818152602001828054600181600116156101000203166002900480156106465780601f1061061b57610100808354040283529160200191610646565b820191906000526020600020905b81548152906001019060200180831161062957829003601f168201915b50505050508a610147565b156107c35786600160008781526020019081526020016000209080600181540180825580915050906001820390600052602060002090600802016000909192909190915060008201548160000155600182018160010190805460018160011615610100020316600290046106c6929190610a40565b50600282018160020190805460018160011615610100020316600290046106ee929190610a40565b5060038201816003019080546001816001161561010002031660029004610716929190610a40565b506004820181600401908054600181600116156101000203166002900461073e929190610a40565b5060058201816005019080546001816001161561010002031660029004610766929190610a40565b506006820181600601908054600181600116156101000203166002900461078e929190610a40565b50600782018160070190805460018160011615610100020316600290046107b6929190610a40565b5050505085806001019650505b5b5b84806001019550506104b3565b6060604051908101604052806040805190810160405280600481526020017f737472310000000000000000000000000000000000000000000000000000000081525081526020016040805190810160405280600481526020017f737472320000000000000000000000000000000000000000000000000000000081525081526020016040805190810160405280600481526020017f7374723300000000000000000000000000000000000000000000000000000000815250815250915061089c8260006002610243565b90508097505050505050505092915050565b6000602083518115156108bd57fe5b0490506000602084518115156108cf57fe5b0611156108df5780806001019150505b60006001820191505b60208102840151858401526020850394506001810190508181106108e8575050505050565b60006020825181151561091c57fe5b04905060006020835181151561092e57fe5b0614151561093f5780806001019150505b8080600101915050602081029050919050565b6101006040519081016040528060008152602001606081526020016060815260200160608152602001606081526020016060815260200160608152602001606081525090565b828054600181600116156101000203166002900490600052602060002090601f016020900481019282601f106109d957805160ff1916838001178555610a07565b82800160010185558215610a07579182015b82811115610a065782518255916020019190600101906109eb565b5b509050610a149190610ac7565b5090565b6060604051908101604052806003905b6060815260200190600190039081610a285790505090565b828054600181600116156101000203166002900490600052602060002090601f016020900481019282601f10610a795780548555610ab6565b82800160010185558215610ab657600052602060002091601f016020900482015b82811115610ab5578254825591600101919060010190610a9a565b5b509050610ac39190610ac7565b5090565b610ae991905b80821115610ae5576000816000905550600101610acd565b5090565b90565b600082601f8301121515610aff57600080fd5b6003610b12610b0d82610edb565b610eae565b9150818360005b83811015610b495781358601610b2f8882610b53565b845260208401935060208301925050600181019050610b19565b5050505092915050565b600082601f8301121515610b6657600080fd5b8135610b79610b7482610efd565b610eae565b91508082526020830160208301858383011115610b9557600080fd5b610ba0838284610f76565b50505092915050565b600082601f8301121515610bbc57600080fd5b8135610bcf610bca82610f29565b610eae565b91508082526020830160208301858383011115610beb57600080fd5b610bf6838284610f76565b50505092915050565b6000610c0b8235610f6c565b905092915050565b600080600060608486031215610c2857600080fd5b600084013567ffffffffffffffff811115610c4257600080fd5b610c4e86828701610aec565b9350506020610c5f86828701610bff565b9250506040610c7086828701610bff565b9150509250925092565b60008060408385031215610c8d57600080fd5b600083013567ffffffffffffffff811115610ca757600080fd5b610cb385828601610ba9565b925050602083013567ffffffffffffffff811115610cd057600080fd5b610cdc85828601610ba9565b9150509250929050565b600080600080600080600060e0888a031215610d0157600080fd5b600088013567ffffffffffffffff811115610d1b57600080fd5b610d278a828b01610ba9565b975050602088013567ffffffffffffffff811115610d4457600080fd5b610d508a828b01610ba9565b965050604088013567ffffffffffffffff811115610d6d57600080fd5b610d798a828b01610ba9565b955050606088013567ffffffffffffffff811115610d9657600080fd5b610da28a828b01610ba9565b945050608088013567ffffffffffffffff811115610dbf57600080fd5b610dcb8a828b01610ba9565b93505060a088013567ffffffffffffffff811115610de857600080fd5b610df48a828b01610ba9565b92505060c088013567ffffffffffffffff811115610e1157600080fd5b610e1d8a828b01610ba9565b91505092959891949750929550565b610e3581610f60565b82525050565b6000610e4682610f55565b808452610e5a816020860160208601610f85565b610e6381610fb8565b602085010191505092915050565b6000602082019050610e866000830184610e2c565b92915050565b60006020820190508181036000830152610ea68184610e3b565b905092915050565b6000604051905081810181811067ffffffffffffffff82111715610ed157600080fd5b8060405250919050565b600067ffffffffffffffff821115610ef257600080fd5b602082029050919050565b600067ffffffffffffffff821115610f1457600080fd5b601f19601f8301169050602081019050919050565b600067ffffffffffffffff821115610f4057600080fd5b601f19601f8301169050602081019050919050565b600081519050919050565b60008115159050919050565b6000819050919050565b82818337600083830152505050565b60005b83811015610fa3578082015181840152602081019050610f88565b83811115610fb2576000848401525b50505050565b6000601f19601f83011690509190505600a265627a7a72305820908f4fe451e03f40ff0fe279836d8d6f026e5212e62e25c93bab21e31097bd7d6c6578706572696d656e74616cf50037",
  "source": "pragma solidity ^0.4.4;\r\npragma experimental ABIEncoderV2;\r\n\r\nimport \"./Seriality.sol\";\r\n\r\ncontract PersonalData is Seriality\r\n{\r\n    struct Node\r\n    {\r\n        uint timestamp;\r\n        string authorityId;\r\n        string stakeholderId;\r\n        string docName;\r\n        string docType;\r\n        string docId;\r\n        string validFrom;\r\n        string validTo;\r\n        //image doc;\r\n    }\r\n\r\n    uint totalEntries=0;\r\n    mapping(uint => Node) Pdata;\r\n    //mapping(unit => mapping(uint=> Node)) PData;\r\n\r\n    function AddPersonalData(string authorityId, string stakeholderId, string docName, string docType, string docId, string validFrom, string validTo) public\r\n    {\r\n        Node memory newData;\r\n        newData.authorityId = authorityId;\r\n        newData.stakeholderId = stakeholderId;\r\n        newData.docName = docName;\r\n        newData.docType = docType;\r\n        newData.docId = docId;\r\n        newData.validFrom = validFrom;\r\n        newData.validTo = validTo;\r\n        newData.timestamp = now;\r\n\r\n        Pdata[totalEntries] = newData;\r\n        //PData[stakeholderId] = newData;\r\n        totalEntries++;\r\n    }\r\n\r\n   \r\n\r\n/*    function GetStudDoc(string stakeholderId, string docType) public returns (Node[])\r\n    {\r\n        Node[] memory nodeList = new Node[]();\r\n        uint256 count=0;\r\n        for (uint i = 0; i < totalEntries; i ++)\r\n        {\r\n            if(stringsEqual(Pdata[i].stakeholderId, stakeholderId))\r\n            {\r\n                if(stringsEqual(Pdata[i].docType, docType))\r\n                {\r\n                    nodeList[count]= Pdata[i];\r\n                    count++;\r\n                }\r\n            }\r\n        }\r\n\r\n        return (nodeList);\r\n    } */\r\n\r\n    //mapping (uint => Node) nodeList;\r\n    function GetStudDoc(string stakeholderId, string docType) public view returns (bytes)\r\n    {\r\n        //Node[] memory nodeList = new Node[]();\r\n        Node[] nodeList;\r\n        uint256 count=0;\r\n        for (uint i = 0; i < totalEntries; i ++)\r\n        {\r\n            bytes memory stakeholder = bytes(stakeholderId);\r\n            bytes memory doctype = bytes(docType);\r\n            if(stakeholder.length !=0 && doctype.length !=0)\r\n            {\r\n                if(stringsEqual(Pdata[i].stakeholderId, stakeholderId))\r\n                {\r\n                    if(stringsEqual(Pdata[i].docType, docType))\r\n                    {\r\n                        //nodeList[count]= Pdata[i];\r\n                        nodeList.push(Pdata[i]);\r\n                        count++;\r\n                    }\r\n                }\r\n           }\r\n        }\r\n        string[3] memory testStr = [\"str1\", \"str2\", \"str3\"];\r\n        bytes memory buffer = getBytes(testStr, 0, 2);\r\n        return buffer;\r\n    }\r\n\r\n    function stringsEqual(string memory _a, string memory _b) public returns (bool) \r\n    {\r\n        bytes memory a = bytes(_a);\r\n        bytes memory b = bytes(_b);\r\n\r\n        bool res;\r\n        // Compare two strings using SHA3\r\n        //if(bytes(a).length !=0 && bytes(b).length !=0)\r\n        //{\r\n            if (keccak256(a) != keccak256(b)) { res=false; }\r\n            else {res=true;}\r\n        //}\r\n        return res;\r\n    }\r\n\r\n    function getBytes(string[3] arr, uint startindex, uint endindex) public view returns(bytes){\r\n\r\n        require(endindex >= startindex);\r\n        \r\n        if(endindex > (arr.length - 1)){\r\n            endindex = arr.length - 1;\r\n        }\r\n        \r\n        //64 byte is needed for safe storage of a single string.\r\n        //((endindex - startindex) + 1) is the number of strings we want to pull out.\r\n        uint offset = 64*((endindex - startindex) + 1);\r\n        \r\n        bytes memory buffer = new  bytes(offset);\r\n        string memory out1  = new string(32);\r\n        \r\n        \r\n        for(uint i = endindex; i >= startindex; i--){\r\n            out1 = arr[i];\r\n            \r\n            stringToBytes(offset, bytes(out1), buffer);\r\n            offset -= sizeOfString(out1);\r\n        }\r\n        \r\n        return (buffer);\r\n    }\r\n\r\n    //function test (string stakeholderId, string docType) public returns (string docId, string docName)\r\n    //{\r\n    //    Node[] memory nodeList = GetStudDoc(\"22\", \"edu\");\r\n        //for (uint i = 0; i < totalEntries; i ++)\r\n        //{\r\n    //        docId = nodeList[1].docId;\r\n    //        docName = nodeList[0].docName;\r\n        //}\r\n    //}\r\n}",
  "sourcePath": "C:\\HackRepos\\PersonalBioChain\\contracts\\PersonalData.sol",
  "compiler": {
    "name": "solc",
    "version": "0.4.24+commit.e67f0147.Emscripten.clang"
  },
  "schemaVersion": "2.0.1",
  "updatedAt": "2018-07-27T06:06:58.274Z"
}