{
  "contractName": "PersonalData",
  "abi": [
    {
      "constant": false,
      "inputs": [
        {
          "name": "authorityId",
          "type": "string"
        },
        {
          "name": "stakeholderId",
          "type": "string"
        },
        {
          "name": "docName",
          "type": "string"
        },
        {
          "name": "docType",
          "type": "string"
        },
        {
          "name": "docId",
          "type": "string"
        },
        {
          "name": "validFrom",
          "type": "string"
        },
        {
          "name": "validTo",
          "type": "string"
        }
      ],
      "name": "AddPersonalData",
      "outputs": [],
      "payable": false,
      "stateMutability": "nonpayable",
      "type": "function"
    },
    {
      "constant": false,
      "inputs": [
        {
          "name": "stakeholderId",
          "type": "string"
        },
        {
          "name": "docType",
          "type": "string"
        }
      ],
      "name": "GetStudDoc",
      "outputs": [
        {
          "components": [
            {
              "name": "timestamp",
              "type": "uint256"
            },
            {
              "name": "authorityId",
              "type": "string"
            },
            {
              "name": "stakeholderId",
              "type": "string"
            },
            {
              "name": "docName",
              "type": "string"
            },
            {
              "name": "docType",
              "type": "string"
            },
            {
              "name": "docId",
              "type": "string"
            },
            {
              "name": "validFrom",
              "type": "string"
            },
            {
              "name": "validTo",
              "type": "string"
            }
          ],
          "name": "",
          "type": "tuple[]"
        }
      ],
      "payable": false,
      "stateMutability": "nonpayable",
      "type": "function"
    },
    {
      "constant": false,
      "inputs": [
        {
          "name": "_a",
          "type": "string"
        },
        {
          "name": "_b",
          "type": "string"
        }
      ],
      "name": "stringsEqual",
      "outputs": [
        {
          "name": "",
          "type": "bool"
        }
      ],
      "payable": false,
      "stateMutability": "nonpayable",
      "type": "function"
    },
    {
      "constant": false,
      "inputs": [
        {
          "name": "stakeholderId",
          "type": "string"
        },
        {
          "name": "docType",
          "type": "string"
        }
      ],
      "name": "test",
      "outputs": [
        {
          "name": "docId",
          "type": "string"
        },
        {
          "name": "docName",
          "type": "string"
        }
      ],
      "payable": false,
      "stateMutability": "nonpayable",
      "type": "function"
    }
  ],
  "bytecode": "0x60806040526000805534801561001457600080fd5b50611365806100246000396000f300608060405260043610610062576000357c0100000000000000000000000000000000000000000000000000000000900463ffffffff16806313d1995014610067578063631f94a3146100a4578063718c5c1c146100cd578063bab86ea81461010a575b600080fd5b34801561007357600080fd5b5061008e60048036036100899190810190610e36565b610148565b60405161009b91906111dc565b60405180910390f35b3480156100b057600080fd5b506100cb60048036036100c69190810190610ea2565b610244565b005b3480156100d957600080fd5b506100f460048036036100ef9190810190610e36565b61039d565b60405161010191906111ba565b60405180910390f35b34801561011657600080fd5b50610131600480360361012c9190810190610e36565b610bad565b60405161013f9291906111f7565b60405180910390f35b60006060806000859250849150816040518082805190602001908083835b60208310151561018b5780518252602082019150602081019050602083039250610166565b6001836020036101000a038019825116818451168082178552505050505050905001915050604051809103902060001916836040518082805190602001908083835b6020831015156101f257805182526020820191506020810190506020830392506101cd565b6001836020036101000a0380198251168184511680821785525050505050509050019150506040518091039020600019161415156102335760009050610238565b600190505b80935050505092915050565b61024c610c6e565b878160200181905250868160400181905250858160600181905250848160800181905250838160a00181905250828160c00181905250818160e00181905250428160000181815250508060016000805481526020019081526020016000206000820151816000015560208201518160010190805190602001906102d0929190610cb4565b5060408201518160020190805190602001906102ed929190610cb4565b50606082015181600301908051906020019061030a929190610cb4565b506080820151816004019080519060200190610327929190610cb4565b5060a0820151816005019080519060200190610344929190610cb4565b5060c0820151816006019080519060200190610361929190610cb4565b5060e082015181600701908051906020019061037e929190610cb4565b5090505060008081548092919060010191905055505050505050505050565b6060600080600060608060009350600092505b6000548310156106cf5787915086905060008251141580156103d457506000815114155b156106c257610491600160008581526020019081526020016000206002018054600181600116156101000203166002900480601f0160208091040260200160405190810160405280929190818152602001828054600181600116156101000203166002900480156104865780601f1061045b57610100808354040283529160200191610486565b820191906000526020600020905b81548152906001019060200180831161046957829003601f168201915b505050505089610148565b156106c15761054e600160008581526020019081526020016000206004018054600181600116156101000203166002900480601f0160208091040260200160405190810160405280929190818152602001828054600181600116156101000203166002900480156105435780601f1061051857610100808354040283529160200191610543565b820191906000526020600020905b81548152906001019060200180831161052657829003601f168201915b505050505088610148565b156106c05784600160008581526020019081526020016000209080600181540180825580915050906001820390600052602060002090600802016000909192909190915060008201548160000155600182018160010190805460018160011615610100020316600290046105c3929190610d34565b50600282018160020190805460018160011615610100020316600290046105eb929190610d34565b5060038201816003019080546001816001161561010002031660029004610613929190610d34565b506004820181600401908054600181600116156101000203166002900461063b929190610d34565b5060058201816005019080546001816001161561010002031660029004610663929190610d34565b506006820181600601908054600181600116156101000203166002900461068b929190610d34565b50600782018160070190805460018160011615610100020316600290046106b3929190610d34565b5050505083806001019450505b5b5b82806001019350506103b0565b84805480602002602001604051908101604052809291908181526020016000905b82821015610b9c5783829060005260206000209060080201610100604051908101604052908160008201548152602001600182018054600181600116156101000203166002900480601f0160208091040260200160405190810160405280929190818152602001828054600181600116156101000203166002900480156107b85780601f1061078d576101008083540402835291602001916107b8565b820191906000526020600020905b81548152906001019060200180831161079b57829003601f168201915b50505050508152602001600282018054600181600116156101000203166002900480601f01602080910402602001604051908101604052809291908181526020018280546001816001161561010002031660029004801561085a5780601f1061082f5761010080835404028352916020019161085a565b820191906000526020600020905b81548152906001019060200180831161083d57829003601f168201915b50505050508152602001600382018054600181600116156101000203166002900480601f0160208091040260200160405190810160405280929190818152602001828054600181600116156101000203166002900480156108fc5780601f106108d1576101008083540402835291602001916108fc565b820191906000526020600020905b8154815290600101906020018083116108df57829003601f168201915b50505050508152602001600482018054600181600116156101000203166002900480601f01602080910402602001604051908101604052809291908181526020018280546001816001161561010002031660029004801561099e5780601f106109735761010080835404028352916020019161099e565b820191906000526020600020905b81548152906001019060200180831161098157829003601f168201915b50505050508152602001600582018054600181600116156101000203166002900480601f016020809104026020016040519081016040528092919081815260200182805460018160011615610100020316600290048015610a405780601f10610a1557610100808354040283529160200191610a40565b820191906000526020600020905b815481529060010190602001808311610a2357829003601f168201915b50505050508152602001600682018054600181600116156101000203166002900480601f016020809104026020016040519081016040528092919081815260200182805460018160011615610100020316600290048015610ae25780601f10610ab757610100808354040283529160200191610ae2565b820191906000526020600020905b815481529060010190602001808311610ac557829003601f168201915b50505050508152602001600782018054600181600116156101000203166002900480601f016020809104026020016040519081016040528092919081815260200182805460018160011615610100020316600290048015610b845780601f10610b5957610100808354040283529160200191610b84565b820191906000526020600020905b815481529060010190602001808311610b6757829003601f168201915b505050505081525050815260200190600101906106f0565b505050509550505050505092915050565b6060806060610c266040805190810160405280600281526020017f32320000000000000000000000000000000000000000000000000000000000008152506040805190810160405280600381526020017f656475000000000000000000000000000000000000000000000000000000000081525061039d565b9050806001815181101515610c3757fe5b9060200190602002015160a001519250806000815181101515610c5657fe5b90602001906020020151606001519150509250929050565b6101006040519081016040528060008152602001606081526020016060815260200160608152602001606081526020016060815260200160608152602001606081525090565b828054600181600116156101000203166002900490600052602060002090601f016020900481019282601f10610cf557805160ff1916838001178555610d23565b82800160010185558215610d23579182015b82811115610d22578251825591602001919060010190610d07565b5b509050610d309190610dbb565b5090565b828054600181600116156101000203166002900490600052602060002090601f016020900481019282601f10610d6d5780548555610daa565b82800160010185558215610daa57600052602060002091601f016020900482015b82811115610da9578254825591600101919060010190610d8e565b5b509050610db79190610dbb565b5090565b610ddd91905b80821115610dd9576000816000905550600101610dc1565b5090565b90565b600082601f8301121515610df357600080fd5b8135610e06610e018261125b565b61122e565b91508082526020830160208301858383011115610e2257600080fd5b610e2d8382846112d8565b50505092915050565b60008060408385031215610e4957600080fd5b600083013567ffffffffffffffff811115610e6357600080fd5b610e6f85828601610de0565b925050602083013567ffffffffffffffff811115610e8c57600080fd5b610e9885828601610de0565b9150509250929050565b600080600080600080600060e0888a031215610ebd57600080fd5b600088013567ffffffffffffffff811115610ed757600080fd5b610ee38a828b01610de0565b975050602088013567ffffffffffffffff811115610f0057600080fd5b610f0c8a828b01610de0565b965050604088013567ffffffffffffffff811115610f2957600080fd5b610f358a828b01610de0565b955050606088013567ffffffffffffffff811115610f5257600080fd5b610f5e8a828b01610de0565b945050608088013567ffffffffffffffff811115610f7b57600080fd5b610f878a828b01610de0565b93505060a088013567ffffffffffffffff811115610fa457600080fd5b610fb08a828b01610de0565b92505060c088013567ffffffffffffffff811115610fcd57600080fd5b610fd98a828b01610de0565b91505092959891949750929550565b6000610ff382611294565b8084526020840193508360208202850161100c85611287565b60005b848110156110455783830388526110278383516110d1565b9250611032826112b5565b915060208801975060018101905061100f565b508196508694505050505092915050565b61105f816112c2565b82525050565b6000611070826112aa565b8084526110848160208601602086016112e7565b61108d8161131a565b602085010191505092915050565b60006110a68261129f565b8084526110ba8160208601602086016112e7565b6110c38161131a565b602085010191505092915050565b6000610100830160008301516110ea60008601826111ab565b5060208301518482036020860152611102828261109b565b9150506040830151848203604086015261111c828261109b565b91505060608301518482036060860152611136828261109b565b91505060808301518482036080860152611150828261109b565b91505060a083015184820360a086015261116a828261109b565b91505060c083015184820360c0860152611184828261109b565b91505060e083015184820360e086015261119e828261109b565b9150508091505092915050565b6111b4816112ce565b82525050565b600060208201905081810360008301526111d48184610fe8565b905092915050565b60006020820190506111f16000830184611056565b92915050565b600060408201905081810360008301526112118185611065565b905081810360208301526112258184611065565b90509392505050565b6000604051905081810181811067ffffffffffffffff8211171561125157600080fd5b8060405250919050565b600067ffffffffffffffff82111561127257600080fd5b601f19601f8301169050602081019050919050565b6000602082019050919050565b600081519050919050565b600081519050919050565b600081519050919050565b6000602082019050919050565b60008115159050919050565b6000819050919050565b82818337600083830152505050565b60005b838110156113055780820151818401526020810190506112ea565b83811115611314576000848401525b50505050565b6000601f19601f83011690509190505600a265627a7a72305820e51a025c93079d846e9e0745e540f4e99ea9cbb84c30b23916e9bc57c71f73be6c6578706572696d656e74616cf50037",
  "source": "pragma solidity ^0.4.4;\r\npragma experimental ABIEncoderV2;\r\n\r\ncontract PersonalData\r\n{\r\n    struct Node\r\n    {\r\n        uint timestamp;\r\n        string authorityId;\r\n        string stakeholderId;\r\n        string docName;\r\n        string docType;\r\n        string docId;\r\n        string validFrom;\r\n        string validTo;\r\n        //image doc;\r\n    }\r\n\r\n    uint totalEntries=0;\r\n    mapping(uint => Node) Pdata;\r\n    //mapping(unit => mapping(uint=> Node)) PData;\r\n\r\n    function AddPersonalData(string authorityId, string stakeholderId, string docName, string docType, string docId, string validFrom, string validTo) public\r\n    {\r\n        Node memory newData;\r\n        newData.authorityId = authorityId;\r\n        newData.stakeholderId = stakeholderId;\r\n        newData.docName = docName;\r\n        newData.docType = docType;\r\n        newData.docId = docId;\r\n        newData.validFrom = validFrom;\r\n        newData.validTo = validTo;\r\n        newData.timestamp = now;\r\n\r\n        Pdata[totalEntries] = newData;\r\n        //PData[stakeholderId] = newData;\r\n        totalEntries++;\r\n    }\r\n\r\n   \r\n\r\n/*    function GetStudDoc(string stakeholderId, string docType) public returns (Node[])\r\n    {\r\n        Node[] memory nodeList = new Node[]();\r\n        uint256 count=0;\r\n        for (uint i = 0; i < totalEntries; i ++)\r\n        {\r\n            if(stringsEqual(Pdata[i].stakeholderId, stakeholderId))\r\n            {\r\n                if(stringsEqual(Pdata[i].docType, docType))\r\n                {\r\n                    nodeList[count]= Pdata[i];\r\n                    count++;\r\n                }\r\n            }\r\n        }\r\n\r\n        return (nodeList);\r\n    } */\r\n\r\n    //mapping (uint => Node) nodeList;\r\n    function GetStudDoc(string stakeholderId, string docType) public returns (Node[])\r\n    {\r\n        //Node[] memory nodeList = new Node[]();\r\n        Node[] nodeList;\r\n        uint256 count=0;\r\n        for (uint i = 0; i < totalEntries; i ++)\r\n        {\r\n            bytes memory stakeholder = bytes(stakeholderId);\r\n            bytes memory doctype = bytes(docType);\r\n            if(stakeholder.length !=0 && doctype.length !=0)\r\n            {\r\n                if(stringsEqual(Pdata[i].stakeholderId, stakeholderId))\r\n                {\r\n                    if(stringsEqual(Pdata[i].docType, docType))\r\n                    {\r\n                        //nodeList[count]= Pdata[i];\r\n                        nodeList.push(Pdata[i]);\r\n                        count++;\r\n                    }\r\n                }\r\n           }\r\n        }\r\n\r\n        return (nodeList);\r\n    }\r\n\r\n    function stringsEqual(string memory _a, string memory _b) public returns (bool) \r\n    {\r\n        bytes memory a = bytes(_a);\r\n        bytes memory b = bytes(_b);\r\n\r\n        bool res;\r\n        // Compare two strings using SHA3\r\n        //if(bytes(a).length !=0 && bytes(b).length !=0)\r\n        //{\r\n            if (keccak256(a) != keccak256(b)) { res=false; }\r\n            else {res=true;}\r\n        //}\r\n        return res;\r\n    }\r\n\r\n    function test (string stakeholderId, string docType) public returns (string docId, string docName)\r\n    {\r\n        Node[] memory nodeList = GetStudDoc(\"22\", \"edu\");\r\n        //for (uint i = 0; i < totalEntries; i ++)\r\n        //{\r\n            docId = nodeList[1].docId;\r\n            docName = nodeList[0].docName;\r\n        //}\r\n    }\r\n}",
  "sourcePath": "C:\\HackRepos\\PersonalBioChain\\contracts\\PersonalData.sol",
  "compiler": {
    "name": "solc",
    "version": "0.4.24+commit.e67f0147.Emscripten.clang"
  },
  "schemaVersion": "2.0.1",
  "updatedAt": "2018-07-25T13:53:41.669Z"
}