{
  "contractName": "PersonalData",
  "abi": [
    {
      "constant": false,
      "inputs": [
        {
          "name": "authorityId",
          "type": "string"
        },
        {
          "name": "stakeholderId",
          "type": "string"
        },
        {
          "name": "docName",
          "type": "string"
        },
        {
          "name": "docType",
          "type": "string"
        },
        {
          "name": "docId",
          "type": "string"
        },
        {
          "name": "validFrom",
          "type": "string"
        },
        {
          "name": "validTo",
          "type": "string"
        }
      ],
      "name": "AddPersonalData",
      "outputs": [],
      "payable": false,
      "stateMutability": "nonpayable",
      "type": "function"
    },
    {
      "constant": true,
      "inputs": [
        {
          "name": "stakeholderId",
          "type": "string"
        },
        {
          "name": "docType",
          "type": "string"
        }
      ],
      "name": "GetStudDoc",
      "outputs": [
        {
          "name": "",
          "type": "string[3]"
        }
      ],
      "payable": false,
      "stateMutability": "view",
      "type": "function"
    },
    {
      "constant": false,
      "inputs": [
        {
          "name": "_a",
          "type": "string"
        },
        {
          "name": "_b",
          "type": "string"
        }
      ],
      "name": "stringsEqual",
      "outputs": [
        {
          "name": "",
          "type": "bool"
        }
      ],
      "payable": false,
      "stateMutability": "nonpayable",
      "type": "function"
    }
  ],
  "bytecode": "0x60806040526000805534801561001457600080fd5b50610d08806100246000396000f300608060405260043610610057576000357c0100000000000000000000000000000000000000000000000000000000900463ffffffff16806313d199501461005c578063631f94a314610099578063718c5c1c146100c2575b600080fd5b34801561006857600080fd5b50610083600480360361007e9190810190610950565b6100ff565b6040516100909190610bce565b60405180910390f35b3480156100a557600080fd5b506100c060048036036100bb91908101906109bc565b6101fb565b005b3480156100ce57600080fd5b506100e960048036036100e49190810190610950565b610354565b6040516100f69190610bac565b60405180910390f35b60006060806000859250849150816040518082805190602001908083835b602083101515610142578051825260208201915060208101905060208303925061011d565b6001836020036101000a038019825116818451168082178552505050505050905001915050604051809103902060001916836040518082805190602001908083835b6020831015156101a95780518252602082019150602081019050602083039250610184565b6001836020036101000a0380198251168184511680821785525050505050509050019150506040518091039020600019161415156101ea57600090506101ef565b600190505b80935050505092915050565b610203610760565b878160200181905250868160400181905250858160600181905250848160800181905250838160a00181905250828160c00181905250818160e00181905250428160000181815250508060016000805481526020019081526020016000206000820151816000015560208201518160010190805190602001906102879291906107a6565b5060408201518160020190805190602001906102a49291906107a6565b5060608201518160030190805190602001906102c19291906107a6565b5060808201518160040190805190602001906102de9291906107a6565b5060a08201518160050190805190602001906102fb9291906107a6565b5060c08201518160060190805190602001906103189291906107a6565b5060e08201518160070190805190602001906103359291906107a6565b5090505060008081548092919060010191905055505050505050505050565b61035c610826565b600080600060608061036c610826565b60009450600093505b60005484101561069457889250879150600083511415801561039957506000825114155b1561068757610456600160008681526020019081526020016000206002018054600181600116156101000203166002900480601f01602080910402602001604051908101604052809291908181526020018280546001816001161561010002031660029004801561044b5780601f106104205761010080835404028352916020019161044b565b820191906000526020600020905b81548152906001019060200180831161042e57829003601f168201915b50505050508a6100ff565b1561068657610513600160008681526020019081526020016000206004018054600181600116156101000203166002900480601f0160208091040260200160405190810160405280929190818152602001828054600181600116156101000203166002900480156105085780601f106104dd57610100808354040283529160200191610508565b820191906000526020600020905b8154815290600101906020018083116104eb57829003601f168201915b5050505050896100ff565b1561068557856001600086815260200190815260200160002090806001815401808255809150509060018203906000526020600020906008020160009091929091909150600082015481600001556001820181600101908054600181600116156101000203166002900461058892919061084e565b50600282018160020190805460018160011615610100020316600290046105b092919061084e565b50600382018160030190805460018160011615610100020316600290046105d892919061084e565b506004820181600401908054600181600116156101000203166002900461060092919061084e565b506005820181600501908054600181600116156101000203166002900461062892919061084e565b506006820181600601908054600181600116156101000203166002900461065092919061084e565b506007820181600701908054600181600116156101000203166002900461067892919061084e565b5050505084806001019550505b5b5b8380600101945050610375565b6060604051908101604052806040805190810160405280600481526020017f737472310000000000000000000000000000000000000000000000000000000081525081526020016040805190810160405280600481526020017f737472320000000000000000000000000000000000000000000000000000000081525081526020016040805190810160405280600481526020017f7374723300000000000000000000000000000000000000000000000000000000815250815250905080965050505050505092915050565b6101006040519081016040528060008152602001606081526020016060815260200160608152602001606081526020016060815260200160608152602001606081525090565b828054600181600116156101000203166002900490600052602060002090601f016020900481019282601f106107e757805160ff1916838001178555610815565b82800160010185558215610815579182015b828111156108145782518255916020019190600101906107f9565b5b50905061082291906108d5565b5090565b6060604051908101604052806003905b60608152602001906001900390816108365790505090565b828054600181600116156101000203166002900490600052602060002090601f016020900481019282601f1061088757805485556108c4565b828001600101855582156108c457600052602060002091601f016020900482015b828111156108c35782548255916001019190600101906108a8565b5b5090506108d191906108d5565b5090565b6108f791905b808211156108f35760008160009055506001016108db565b5090565b90565b600082601f830112151561090d57600080fd5b813561092061091b82610c16565b610be9565b9150808252602083016020830185838301111561093c57600080fd5b610947838284610c7b565b50505092915050565b6000806040838503121561096357600080fd5b600083013567ffffffffffffffff81111561097d57600080fd5b610989858286016108fa565b925050602083013567ffffffffffffffff8111156109a657600080fd5b6109b2858286016108fa565b9150509250929050565b600080600080600080600060e0888a0312156109d757600080fd5b600088013567ffffffffffffffff8111156109f157600080fd5b6109fd8a828b016108fa565b975050602088013567ffffffffffffffff811115610a1a57600080fd5b610a268a828b016108fa565b965050604088013567ffffffffffffffff811115610a4357600080fd5b610a4f8a828b016108fa565b955050606088013567ffffffffffffffff811115610a6c57600080fd5b610a788a828b016108fa565b945050608088013567ffffffffffffffff811115610a9557600080fd5b610aa18a828b016108fa565b93505060a088013567ffffffffffffffff811115610abe57600080fd5b610aca8a828b016108fa565b92505060c088013567ffffffffffffffff811115610ae757600080fd5b610af38a828b016108fa565b91505092959891949750929550565b6000610b0d82610c4c565b83602082028501610b1d85610c42565b60005b84811015610b56578383038852610b38838351610b76565b9250610b4382610c62565b9150602088019750600181019050610b20565b508196508694505050505092915050565b610b7081610c6f565b82525050565b6000610b8182610c57565b808452610b95816020860160208601610c8a565b610b9e81610cbd565b602085010191505092915050565b60006020820190508181036000830152610bc68184610b02565b905092915050565b6000602082019050610be36000830184610b67565b92915050565b6000604051905081810181811067ffffffffffffffff82111715610c0c57600080fd5b8060405250919050565b600067ffffffffffffffff821115610c2d57600080fd5b601f19601f8301169050602081019050919050565b6000819050919050565b600060039050919050565b600081519050919050565b6000602082019050919050565b60008115159050919050565b82818337600083830152505050565b60005b83811015610ca8578082015181840152602081019050610c8d565b83811115610cb7576000848401525b50505050565b6000601f19601f83011690509190505600a265627a7a7230582033306ef4f95915b939be2d22b7dc08d3a61a998a937d38bfa3df4dbd9b7983b16c6578706572696d656e74616cf50037",
  "source": "pragma solidity ^0.4.4;\r\npragma experimental ABIEncoderV2;\r\n\r\ncontract PersonalData\r\n{\r\n    struct Node\r\n    {\r\n        uint timestamp;\r\n        string authorityId;\r\n        string stakeholderId;\r\n        string docName;\r\n        string docType;\r\n        string docId;\r\n        string validFrom;\r\n        string validTo;\r\n        //image doc;\r\n    }\r\n\r\n    uint totalEntries=0;\r\n    mapping(uint => Node) Pdata;\r\n    //mapping(unit => mapping(uint=> Node)) PData;\r\n\r\n    function AddPersonalData(string authorityId, string stakeholderId, string docName, string docType, string docId, string validFrom, string validTo) public\r\n    {\r\n        Node memory newData;\r\n        newData.authorityId = authorityId;\r\n        newData.stakeholderId = stakeholderId;\r\n        newData.docName = docName;\r\n        newData.docType = docType;\r\n        newData.docId = docId;\r\n        newData.validFrom = validFrom;\r\n        newData.validTo = validTo;\r\n        newData.timestamp = now;\r\n\r\n        Pdata[totalEntries] = newData;\r\n        //PData[stakeholderId] = newData;\r\n        totalEntries++;\r\n    }\r\n\r\n   \r\n\r\n/*    function GetStudDoc(string stakeholderId, string docType) public returns (Node[])\r\n    {\r\n        Node[] memory nodeList = new Node[]();\r\n        uint256 count=0;\r\n        for (uint i = 0; i < totalEntries; i ++)\r\n        {\r\n            if(stringsEqual(Pdata[i].stakeholderId, stakeholderId))\r\n            {\r\n                if(stringsEqual(Pdata[i].docType, docType))\r\n                {\r\n                    nodeList[count]= Pdata[i];\r\n                    count++;\r\n                }\r\n            }\r\n        }\r\n\r\n        return (nodeList);\r\n    } */\r\n\r\n    //mapping (uint => Node) nodeList;\r\n    function GetStudDoc(string stakeholderId, string docType) public view returns (string[3])\r\n    {\r\n        //Node[] memory nodeList = new Node[]();\r\n        Node[] nodeList;\r\n        uint256 count=0;\r\n        for (uint i = 0; i < totalEntries; i ++)\r\n        {\r\n            bytes memory stakeholder = bytes(stakeholderId);\r\n            bytes memory doctype = bytes(docType);\r\n            if(stakeholder.length !=0 && doctype.length !=0)\r\n            {\r\n                if(stringsEqual(Pdata[i].stakeholderId, stakeholderId))\r\n                {\r\n                    if(stringsEqual(Pdata[i].docType, docType))\r\n                    {\r\n                        //nodeList[count]= Pdata[i];\r\n                        nodeList.push(Pdata[i]);\r\n                        count++;\r\n                    }\r\n                }\r\n           }\r\n        }\r\n        string[3] memory testStr = [\"str1\", \"str2\", \"str3\"];\r\n        return testStr;\r\n    }\r\n\r\n    function stringsEqual(string memory _a, string memory _b) public returns (bool) \r\n    {\r\n        bytes memory a = bytes(_a);\r\n        bytes memory b = bytes(_b);\r\n\r\n        bool res;\r\n        // Compare two strings using SHA3\r\n        //if(bytes(a).length !=0 && bytes(b).length !=0)\r\n        //{\r\n            if (keccak256(a) != keccak256(b)) { res=false; }\r\n            else {res=true;}\r\n        //}\r\n        return res;\r\n    }\r\n\r\n    //function test (string stakeholderId, string docType) public returns (string docId, string docName)\r\n    //{\r\n    //    Node[] memory nodeList = GetStudDoc(\"22\", \"edu\");\r\n        //for (uint i = 0; i < totalEntries; i ++)\r\n        //{\r\n    //        docId = nodeList[1].docId;\r\n    //        docName = nodeList[0].docName;\r\n        //}\r\n    //}\r\n}",
  "sourcePath": "C:\\HackRepos\\PersonalBioChain\\contracts\\PersonalData.sol",
  "compiler": {
    "name": "solc",
    "version": "0.4.24+commit.e67f0147.Emscripten.clang"
  },
  "schemaVersion": "2.0.1",
  "updatedAt": "2018-07-26T18:55:06.507Z"
}