{
  "contractName": "PersonalData",
  "abi": [
    {
      "constant": false,
      "inputs": [
        {
          "name": "authorityId",
          "type": "string"
        },
        {
          "name": "stakeholderId",
          "type": "string"
        },
        {
          "name": "docName",
          "type": "string"
        },
        {
          "name": "docType",
          "type": "string"
        },
        {
          "name": "docId",
          "type": "string"
        },
        {
          "name": "validFrom",
          "type": "uint256"
        },
        {
          "name": "validTo",
          "type": "uint256"
        }
      ],
      "name": "AddPersonalData",
      "outputs": [],
      "payable": false,
      "stateMutability": "nonpayable",
      "type": "function"
    },
    {
      "constant": false,
      "inputs": [
        {
          "name": "stakeholderId",
          "type": "string"
        },
        {
          "name": "docType",
          "type": "string"
        }
      ],
      "name": "GetStudDoc",
      "outputs": [
        {
          "components": [
            {
              "name": "timestamp",
              "type": "uint256"
            },
            {
              "name": "authorityId",
              "type": "string"
            },
            {
              "name": "stakeholderId",
              "type": "string"
            },
            {
              "name": "docName",
              "type": "string"
            },
            {
              "name": "docType",
              "type": "string"
            },
            {
              "name": "docId",
              "type": "string"
            },
            {
              "name": "validFrom",
              "type": "uint256"
            },
            {
              "name": "validTo",
              "type": "uint256"
            }
          ],
          "name": "",
          "type": "tuple[]"
        }
      ],
      "payable": false,
      "stateMutability": "nonpayable",
      "type": "function"
    },
    {
      "constant": false,
      "inputs": [
        {
          "name": "_a",
          "type": "string"
        },
        {
          "name": "_b",
          "type": "string"
        }
      ],
      "name": "stringsEqual",
      "outputs": [
        {
          "name": "",
          "type": "bool"
        }
      ],
      "payable": false,
      "stateMutability": "nonpayable",
      "type": "function"
    },
    {
      "constant": false,
      "inputs": [
        {
          "name": "stakeholderId",
          "type": "string"
        },
        {
          "name": "docType",
          "type": "string"
        }
      ],
      "name": "test",
      "outputs": [
        {
          "name": "docId",
          "type": "string"
        },
        {
          "name": "docName",
          "type": "string"
        }
      ],
      "payable": false,
      "stateMutability": "nonpayable",
      "type": "function"
    }
  ],
  "bytecode": "0x60806040526000805534801561001457600080fd5b506111b5806100246000396000f300608060405260043610610062576000357c0100000000000000000000000000000000000000000000000000000000900463ffffffff16806313d19950146100675780636a529df2146100a4578063718c5c1c146100cd578063bab86ea81461010a575b600080fd5b34801561007357600080fd5b5061008e60048036036100899190810190610cba565b610148565b60405161009b9190611022565b60405180910390f35b3480156100b057600080fd5b506100cb60048036036100c69190810190610d26565b610244565b005b3480156100d957600080fd5b506100f460048036036100ef9190810190610cba565b610379565b6040516101019190611000565b60405180910390f35b34801561011657600080fd5b50610131600480360361012c9190810190610cba565b610a1d565b60405161013f92919061103d565b60405180910390f35b60006060806000859250849150816040518082805190602001908083835b60208310151561018b5780518252602082019150602081019050602083039250610166565b6001836020036101000a038019825116818451168082178552505050505050905001915050604051809103902060001916836040518082805190602001908083835b6020831015156101f257805182526020820191506020810190506020830392506101cd565b6001836020036101000a0380198251168184511680821785525050505050509050019150506040518091039020600019161415156102335760009050610238565b600190505b80935050505092915050565b61024c610ade565b878160200181905250868160400181905250858160600181905250848160800181905250838160a00181905250828160c0018181525050818160e0018181525050428160000181815250508060016000805481526020019081526020016000206000820151816000015560208201518160010190805190602001906102d2929190610b24565b5060408201518160020190805190602001906102ef929190610b24565b50606082015181600301908051906020019061030c929190610b24565b506080820151816004019080519060200190610329929190610b24565b5060a0820151816005019080519060200190610346929190610b24565b5060c0820151816006015560e0820151816007015590505060008081548092919060010191905055505050505050505050565b6060600080600060608060009350600092505b60005483101561066f5787915086905060008251141580156103b057506000815114155b156106625761046d600160008581526020019081526020016000206002018054600181600116156101000203166002900480601f0160208091040260200160405190810160405280929190818152602001828054600181600116156101000203166002900480156104625780601f1061043757610100808354040283529160200191610462565b820191906000526020600020905b81548152906001019060200180831161044557829003601f168201915b505050505089610148565b156106615761052a600160008581526020019081526020016000206004018054600181600116156101000203166002900480601f01602080910402602001604051908101604052809291908181526020018280546001816001161561010002031660029004801561051f5780601f106104f45761010080835404028352916020019161051f565b820191906000526020600020905b81548152906001019060200180831161050257829003601f168201915b505050505088610148565b1561066057846001600085815260200190815260200160002090806001815401808255809150509060018203906000526020600020906008020160009091929091909150600082015481600001556001820181600101908054600181600116156101000203166002900461059f929190610ba4565b50600282018160020190805460018160011615610100020316600290046105c7929190610ba4565b50600382018160030190805460018160011615610100020316600290046105ef929190610ba4565b5060048201816004019080546001816001161561010002031660029004610617929190610ba4565b506005820181600501908054600181600116156101000203166002900461063f929190610ba4565b50600682015481600601556007820154816007015550505083806001019450505b5b5b828060010193505061038c565b84805480602002602001604051908101604052809291908181526020016000905b82821015610a0c5783829060005260206000209060080201610100604051908101604052908160008201548152602001600182018054600181600116156101000203166002900480601f0160208091040260200160405190810160405280929190818152602001828054600181600116156101000203166002900480156107585780601f1061072d57610100808354040283529160200191610758565b820191906000526020600020905b81548152906001019060200180831161073b57829003601f168201915b50505050508152602001600282018054600181600116156101000203166002900480601f0160208091040260200160405190810160405280929190818152602001828054600181600116156101000203166002900480156107fa5780601f106107cf576101008083540402835291602001916107fa565b820191906000526020600020905b8154815290600101906020018083116107dd57829003601f168201915b50505050508152602001600382018054600181600116156101000203166002900480601f01602080910402602001604051908101604052809291908181526020018280546001816001161561010002031660029004801561089c5780601f106108715761010080835404028352916020019161089c565b820191906000526020600020905b81548152906001019060200180831161087f57829003601f168201915b50505050508152602001600482018054600181600116156101000203166002900480601f01602080910402602001604051908101604052809291908181526020018280546001816001161561010002031660029004801561093e5780601f106109135761010080835404028352916020019161093e565b820191906000526020600020905b81548152906001019060200180831161092157829003601f168201915b50505050508152602001600582018054600181600116156101000203166002900480601f0160208091040260200160405190810160405280929190818152602001828054600181600116156101000203166002900480156109e05780601f106109b5576101008083540402835291602001916109e0565b820191906000526020600020905b8154815290600101906020018083116109c357829003601f168201915b505050505081526020016006820154815260200160078201548152505081526020019060010190610690565b505050509550505050505092915050565b6060806060610a966040805190810160405280600281526020017f32320000000000000000000000000000000000000000000000000000000000008152506040805190810160405280600381526020017f6564750000000000000000000000000000000000000000000000000000000000815250610379565b9050806001815181101515610aa757fe5b9060200190602002015160a001519250806000815181101515610ac657fe5b90602001906020020151606001519150509250929050565b6101006040519081016040528060008152602001606081526020016060815260200160608152602001606081526020016060815260200160008152602001600081525090565b828054600181600116156101000203166002900490600052602060002090601f016020900481019282601f10610b6557805160ff1916838001178555610b93565b82800160010185558215610b93579182015b82811115610b92578251825591602001919060010190610b77565b5b509050610ba09190610c2b565b5090565b828054600181600116156101000203166002900490600052602060002090601f016020900481019282601f10610bdd5780548555610c1a565b82800160010185558215610c1a57600052602060002091601f016020900482015b82811115610c19578254825591600101919060010190610bfe565b5b509050610c279190610c2b565b5090565b610c4d91905b80821115610c49576000816000905550600101610c31565b5090565b90565b600082601f8301121515610c6357600080fd5b8135610c76610c71826110a1565b611074565b91508082526020830160208301858383011115610c9257600080fd5b610c9d838284611128565b50505092915050565b6000610cb2823561111e565b905092915050565b60008060408385031215610ccd57600080fd5b600083013567ffffffffffffffff811115610ce757600080fd5b610cf385828601610c50565b925050602083013567ffffffffffffffff811115610d1057600080fd5b610d1c85828601610c50565b9150509250929050565b600080600080600080600060e0888a031215610d4157600080fd5b600088013567ffffffffffffffff811115610d5b57600080fd5b610d678a828b01610c50565b975050602088013567ffffffffffffffff811115610d8457600080fd5b610d908a828b01610c50565b965050604088013567ffffffffffffffff811115610dad57600080fd5b610db98a828b01610c50565b955050606088013567ffffffffffffffff811115610dd657600080fd5b610de28a828b01610c50565b945050608088013567ffffffffffffffff811115610dff57600080fd5b610e0b8a828b01610c50565b93505060a0610e1c8a828b01610ca6565b92505060c0610e2d8a828b01610ca6565b91505092959891949750929550565b6000610e47826110da565b80845260208401935083602082028501610e60856110cd565b60005b84811015610e99578383038852610e7b838351610f25565b9250610e86826110fb565b9150602088019750600181019050610e63565b508196508694505050505092915050565b610eb381611108565b82525050565b6000610ec4826110f0565b808452610ed8816020860160208601611137565b610ee18161116a565b602085010191505092915050565b6000610efa826110e5565b808452610f0e816020860160208601611137565b610f178161116a565b602085010191505092915050565b600061010083016000830151610f3e6000860182610ff1565b5060208301518482036020860152610f568282610eef565b91505060408301518482036040860152610f708282610eef565b91505060608301518482036060860152610f8a8282610eef565b91505060808301518482036080860152610fa48282610eef565b91505060a083015184820360a0860152610fbe8282610eef565b91505060c0830151610fd360c0860182610ff1565b5060e0830151610fe660e0860182610ff1565b508091505092915050565b610ffa81611114565b82525050565b6000602082019050818103600083015261101a8184610e3c565b905092915050565b60006020820190506110376000830184610eaa565b92915050565b600060408201905081810360008301526110578185610eb9565b9050818103602083015261106b8184610eb9565b90509392505050565b6000604051905081810181811067ffffffffffffffff8211171561109757600080fd5b8060405250919050565b600067ffffffffffffffff8211156110b857600080fd5b601f19601f8301169050602081019050919050565b6000602082019050919050565b600081519050919050565b600081519050919050565b600081519050919050565b6000602082019050919050565b60008115159050919050565b6000819050919050565b6000819050919050565b82818337600083830152505050565b60005b8381101561115557808201518184015260208101905061113a565b83811115611164576000848401525b50505050565b6000601f19601f83011690509190505600a265627a7a72305820dc3e33532442252a8fd3d286990d411280487663f8d297bc9115dd9aadf4e8506c6578706572696d656e74616cf50037",
  "source": "pragma solidity ^0.4.4;\r\npragma experimental ABIEncoderV2;\r\n\r\ncontract PersonalData\r\n{\r\n    struct Node\r\n    {\r\n        uint timestamp;\r\n        string authorityId;\r\n        string stakeholderId;\r\n        string docName;\r\n        string docType;\r\n        string docId;\r\n        uint validFrom;\r\n        uint validTo;\r\n        //image doc;\r\n    }\r\n\r\n    uint totalEntries=0;\r\n    mapping(uint => Node) Pdata;\r\n    //mapping(unit => mapping(uint=> Node)) PData;\r\n\r\n    function AddPersonalData(string authorityId, string stakeholderId, string docName, string docType, string docId, uint validFrom, uint validTo) public\r\n    {\r\n        Node memory newData;\r\n        newData.authorityId = authorityId;\r\n        newData.stakeholderId = stakeholderId;\r\n        newData.docName = docName;\r\n        newData.docType = docType;\r\n        newData.docId = docId;\r\n        newData.validFrom = validFrom;\r\n        newData.validTo = validTo;\r\n        newData.timestamp = now;\r\n\r\n        Pdata[totalEntries] = newData;\r\n        //PData[stakeholderId] = newData;\r\n        totalEntries++;\r\n    }\r\n\r\n   \r\n\r\n/*    function GetStudDoc(string stakeholderId, string docType) public returns (Node[])\r\n    {\r\n        Node[] memory nodeList = new Node[]();\r\n        uint256 count=0;\r\n        for (uint i = 0; i < totalEntries; i ++)\r\n        {\r\n            if(stringsEqual(Pdata[i].stakeholderId, stakeholderId))\r\n            {\r\n                if(stringsEqual(Pdata[i].docType, docType))\r\n                {\r\n                    nodeList[count]= Pdata[i];\r\n                    count++;\r\n                }\r\n            }\r\n        }\r\n\r\n        return (nodeList);\r\n    } */\r\n\r\n    //mapping (uint => Node) nodeList;\r\n    function GetStudDoc(string stakeholderId, string docType) public returns (Node[])\r\n    {\r\n        //Node[] memory nodeList = new Node[]();\r\n        Node[] nodeList;\r\n        uint256 count=0;\r\n        for (uint i = 0; i < totalEntries; i ++)\r\n        {\r\n            bytes memory stakeholder = bytes(stakeholderId);\r\n            bytes memory doctype = bytes(docType);\r\n            if(stakeholder.length !=0 && doctype.length !=0)\r\n            {\r\n                if(stringsEqual(Pdata[i].stakeholderId, stakeholderId))\r\n                {\r\n                    if(stringsEqual(Pdata[i].docType, docType))\r\n                    {\r\n                        //nodeList[count]= Pdata[i];\r\n                        nodeList.push(Pdata[i]);\r\n                        count++;\r\n                    }\r\n                }\r\n           }\r\n        }\r\n\r\n        return (nodeList);\r\n    }\r\n\r\n    function stringsEqual(string memory _a, string memory _b) public returns (bool) \r\n    {\r\n        bytes memory a = bytes(_a);\r\n        bytes memory b = bytes(_b);\r\n\r\n        bool res;\r\n        // Compare two strings using SHA3\r\n        //if(bytes(a).length !=0 && bytes(b).length !=0)\r\n        //{\r\n            if (keccak256(a) != keccak256(b)) { res=false; }\r\n            else {res=true;}\r\n        //}\r\n        return res;\r\n    }\r\n\r\n    function test (string stakeholderId, string docType) public returns (string docId, string docName)\r\n    {\r\n        Node[] memory nodeList = GetStudDoc(\"22\", \"edu\");\r\n        //for (uint i = 0; i < totalEntries; i ++)\r\n        //{\r\n            docId = nodeList[1].docId;\r\n            docName = nodeList[0].docName;\r\n        //}\r\n    }\r\n}",
  "sourcePath": "D:\\hackathon\\DAPP\\PersonalBioChain\\contracts\\PersonalData.sol",
  "compiler": {
    "name": "solc",
    "version": "0.4.24+commit.e67f0147.Emscripten.clang"
  },
  "schemaVersion": "2.0.1",
  "updatedAt": "2018-07-25T12:57:04.841Z"
}